{
  "contractName": "BuyerRole",
  "abi": [
    {
      "inputs": [],
      "stateMutability": "nonpayable",
      "type": "constructor"
    },
    {
      "anonymous": false,
      "inputs": [
        {
          "indexed": true,
          "internalType": "address",
          "name": "account",
          "type": "address"
        }
      ],
      "name": "BuyerAdded",
      "type": "event"
    },
    {
      "anonymous": false,
      "inputs": [
        {
          "indexed": true,
          "internalType": "address",
          "name": "account",
          "type": "address"
        }
      ],
      "name": "BuyerRemoved",
      "type": "event"
    },
    {
      "inputs": [
        {
          "internalType": "address",
          "name": "addr",
          "type": "address"
        }
      ],
      "name": "addBuyer",
      "outputs": [],
      "stateMutability": "nonpayable",
      "type": "function"
    },
    {
      "inputs": [
        {
          "internalType": "address",
          "name": "addr",
          "type": "address"
        }
      ],
      "name": "isBuyer",
      "outputs": [
        {
          "internalType": "bool",
          "name": "",
          "type": "bool"
        }
      ],
      "stateMutability": "view",
      "type": "function",
      "constant": true
    },
    {
      "inputs": [],
      "name": "removeBuyer",
      "outputs": [],
      "stateMutability": "nonpayable",
      "type": "function"
    },
    {
      "inputs": [
        {
          "internalType": "address",
          "name": "addr",
          "type": "address"
        }
      ],
      "name": "_removeBuyer",
      "outputs": [],
      "stateMutability": "nonpayable",
      "type": "function"
    }
  ],
  "bytecode": "0x608060405234801561001057600080fd5b506100203361002560201b60201c565b6101cc565b61003d81600061008360201b6101751790919060201c565b8073ffffffffffffffffffffffffffffffffffffffff167f6599d9dd7f97ccdc3d99ab507544f9f6ebfca20c63a7e3c018da49eeaefb164a60405160405180910390a250565b80600073ffffffffffffffffffffffffffffffffffffffff168173ffffffffffffffffffffffffffffffffffffffff1614156100be57600080fd5b6100ce838361013760201b60201c565b156100d857600080fd5b60018360000160008473ffffffffffffffffffffffffffffffffffffffff1673ffffffffffffffffffffffffffffffffffffffff16815260200190815260200160002060006101000a81548160ff021916908315150217905550505050565b600081600073ffffffffffffffffffffffffffffffffffffffff168173ffffffffffffffffffffffffffffffffffffffff16141561017457600080fd5b8360000160008473ffffffffffffffffffffffffffffffffffffffff1673ffffffffffffffffffffffffffffffffffffffff16815260200190815260200160002060009054906101000a900460ff1691505092915050565b6104bb806101db6000396000f3fe608060405234801561001057600080fd5b506004361061004c5760003560e01c80630334828d146100515780632a55feec1461005b578063bbf898031461008b578063fa38fcdd146100a7575b600080fd5b6100596100c3565b005b610075600480360381019061007091906103d4565b6100ce565b6040516100829190610410565b60405180910390f35b6100a560048036038101906100a091906103d4565b6100eb565b005b6100c160048036038101906100bc91906103d4565b610109565b005b6100cc33610109565b565b60006100e482600061022390919063ffffffff16565b9050919050565b6100f4336100ce565b6100fd57600080fd5b610106816102b8565b50565b610112336100ce565b61011b57600080fd5b61012f81600061031290919063ffffffff16565b8073ffffffffffffffffffffffffffffffffffffffff167f83fd4cbc7bc934bdfbae994ac6e72fcc0e50abd6995c1949520e761ba650d58260405160405180910390a250565b80600073ffffffffffffffffffffffffffffffffffffffff168173ffffffffffffffffffffffffffffffffffffffff1614156101b057600080fd5b6101ba8383610223565b156101c457600080fd5b60018360000160008473ffffffffffffffffffffffffffffffffffffffff1673ffffffffffffffffffffffffffffffffffffffff16815260200190815260200160002060006101000a81548160ff021916908315150217905550505050565b600081600073ffffffffffffffffffffffffffffffffffffffff168173ffffffffffffffffffffffffffffffffffffffff16141561026057600080fd5b8360000160008473ffffffffffffffffffffffffffffffffffffffff1673ffffffffffffffffffffffffffffffffffffffff16815260200190815260200160002060009054906101000a900460ff1691505092915050565b6102cc81600061017590919063ffffffff16565b8073ffffffffffffffffffffffffffffffffffffffff167f6599d9dd7f97ccdc3d99ab507544f9f6ebfca20c63a7e3c018da49eeaefb164a60405160405180910390a250565b80600073ffffffffffffffffffffffffffffffffffffffff168173ffffffffffffffffffffffffffffffffffffffff16141561034d57600080fd5b6103578383610223565b61036057600080fd5b60008360000160008473ffffffffffffffffffffffffffffffffffffffff1673ffffffffffffffffffffffffffffffffffffffff16815260200190815260200160002060006101000a81548160ff021916908315150217905550505050565b6000813590506103ce8161046e565b92915050565b6000602082840312156103ea576103e9610469565b5b60006103f8848285016103bf565b91505092915050565b61040a8161043d565b82525050565b60006020820190506104256000830184610401565b92915050565b600061043682610449565b9050919050565b60008115159050919050565b600073ffffffffffffffffffffffffffffffffffffffff82169050919050565b600080fd5b6104778161042b565b811461048257600080fd5b5056fea26469706673582212206cb5e1d8c4df15d3ba707f58862c00b122cc8d9ea1228158eef50ca353ad747364736f6c63430008070033",
  "immutableReferences": {},
  "source": "// SPDX-License-Identifier: MIT\npragma solidity >=0.8.0;\n\nimport \"./Roles.sol\";\n\ncontract BuyerRole {\n    using Roles for Roles.Role;\n\n    /*\n    Events\n     */\n\n    event BuyerAdded (address indexed account);\n    event BuyerRemoved (address indexed account);\n\n    /*\n    Modifiers\n    */\n\n    Roles.Role private buyers;\n\n    constructor() {\n        _addBuyer(msg.sender); //mm...should be an admin role...this is kinda weird.\n    }\n\n    modifier onlyBuyer() {\n        require(isBuyer(msg.sender));\n        _;\n    }\n\n    function addBuyer(address addr) public onlyBuyer {\n        _addBuyer(addr);\n    }\n\n\n    function _addBuyer(address addr) internal {\n        buyers.add(addr);\n        emit BuyerAdded(addr);\n    }\n\n    function isBuyer(address addr) public view returns(bool){\n        return buyers.has(addr);\n    }\n\n    function removeBuyer() public {\n        _removeBuyer(msg.sender);\n    } \n\n    function _removeBuyer(address addr) public onlyBuyer {\n        buyers.remove(addr);\n        emit BuyerRemoved(addr);        \n    }\n\n}",
  "sourcePath": "/home/robinson/Documents/Repos/blockchain_course/projectSupplyChain/contracts/accesscontrol/BuyerRole.sol",
  "compiler": {
    "name": "solc",
    "version": "0.8.7+commit.e28d00a7.Emscripten.clang"
  },
  "schemaVersion": "3.4.1",
  "updatedAt": "2021-08-13T01:55:07.155Z",
  "networkType": "ethereum",
  "devdoc": {
    "kind": "dev",
    "methods": {},
    "version": 1
  },
  "userdoc": {
    "kind": "user",
    "methods": {},
    "version": 1
  }
}