{
  "contractName": "DistributorRole",
  "abi": [
    {
      "inputs": [],
      "stateMutability": "nonpayable",
      "type": "constructor"
    },
    {
      "anonymous": false,
      "inputs": [
        {
          "indexed": true,
          "internalType": "address",
          "name": "account",
          "type": "address"
        }
      ],
      "name": "DistributorAdded",
      "type": "event"
    },
    {
      "anonymous": false,
      "inputs": [
        {
          "indexed": true,
          "internalType": "address",
          "name": "account",
          "type": "address"
        }
      ],
      "name": "DistributorRemoved",
      "type": "event"
    },
    {
      "inputs": [
        {
          "internalType": "address",
          "name": "addr",
          "type": "address"
        }
      ],
      "name": "addDistributor",
      "outputs": [],
      "stateMutability": "nonpayable",
      "type": "function"
    },
    {
      "inputs": [
        {
          "internalType": "address",
          "name": "addr",
          "type": "address"
        }
      ],
      "name": "isDistributor",
      "outputs": [
        {
          "internalType": "bool",
          "name": "",
          "type": "bool"
        }
      ],
      "stateMutability": "view",
      "type": "function",
      "constant": true
    },
    {
      "inputs": [],
      "name": "removeDistributor",
      "outputs": [],
      "stateMutability": "nonpayable",
      "type": "function"
    },
    {
      "inputs": [
        {
          "internalType": "address",
          "name": "addr",
          "type": "address"
        }
      ],
      "name": "_removeDistributor",
      "outputs": [],
      "stateMutability": "nonpayable",
      "type": "function"
    }
  ],
  "bytecode": "0x608060405234801561001057600080fd5b506100203361002560201b60201c565b6101cc565b61003d81600061008360201b6101751790919060201c565b8073ffffffffffffffffffffffffffffffffffffffff167fddbf200aa634dc3fb81cfd68583dd1040d1c751d335e1d86b631bde3e977fea860405160405180910390a250565b80600073ffffffffffffffffffffffffffffffffffffffff168173ffffffffffffffffffffffffffffffffffffffff1614156100be57600080fd5b6100ce838361013760201b60201c565b156100d857600080fd5b60018360000160008473ffffffffffffffffffffffffffffffffffffffff1673ffffffffffffffffffffffffffffffffffffffff16815260200190815260200160002060006101000a81548160ff021916908315150217905550505050565b600081600073ffffffffffffffffffffffffffffffffffffffff168173ffffffffffffffffffffffffffffffffffffffff16141561017457600080fd5b8360000160008473ffffffffffffffffffffffffffffffffffffffff1673ffffffffffffffffffffffffffffffffffffffff16815260200190815260200160002060009054906101000a900460ff1691505092915050565b6104bb806101db6000396000f3fe608060405234801561001057600080fd5b506004361061004c5760003560e01c80637250e224146100515780638ced5b3f1461006d5780638f0c86fa146100895780639bdc0801146100b9575b600080fd5b61006b600480360381019061006691906103d4565b6100c3565b005b610087600480360381019061008291906103d4565b6100e1565b005b6100a3600480360381019061009e91906103d4565b61014d565b6040516100b09190610410565b60405180910390f35b6100c161016a565b005b6100cc3361014d565b6100d557600080fd5b6100de81610223565b50565b6100ea3361014d565b6100f357600080fd5b61010781600061027d90919063ffffffff16565b8073ffffffffffffffffffffffffffffffffffffffff167f126174f6cf49c81cdb4a9214c6b8f037bef55b4ec31e4fc776cea2a1c8a88d5960405160405180910390a250565b600061016382600061032a90919063ffffffff16565b9050919050565b610173336100e1565b565b80600073ffffffffffffffffffffffffffffffffffffffff168173ffffffffffffffffffffffffffffffffffffffff1614156101b057600080fd5b6101ba838361032a565b156101c457600080fd5b60018360000160008473ffffffffffffffffffffffffffffffffffffffff1673ffffffffffffffffffffffffffffffffffffffff16815260200190815260200160002060006101000a81548160ff021916908315150217905550505050565b61023781600061017590919063ffffffff16565b8073ffffffffffffffffffffffffffffffffffffffff167fddbf200aa634dc3fb81cfd68583dd1040d1c751d335e1d86b631bde3e977fea860405160405180910390a250565b80600073ffffffffffffffffffffffffffffffffffffffff168173ffffffffffffffffffffffffffffffffffffffff1614156102b857600080fd5b6102c2838361032a565b6102cb57600080fd5b60008360000160008473ffffffffffffffffffffffffffffffffffffffff1673ffffffffffffffffffffffffffffffffffffffff16815260200190815260200160002060006101000a81548160ff021916908315150217905550505050565b600081600073ffffffffffffffffffffffffffffffffffffffff168173ffffffffffffffffffffffffffffffffffffffff16141561036757600080fd5b8360000160008473ffffffffffffffffffffffffffffffffffffffff1673ffffffffffffffffffffffffffffffffffffffff16815260200190815260200160002060009054906101000a900460ff1691505092915050565b6000813590506103ce8161046e565b92915050565b6000602082840312156103ea576103e9610469565b5b60006103f8848285016103bf565b91505092915050565b61040a8161043d565b82525050565b60006020820190506104256000830184610401565b92915050565b600061043682610449565b9050919050565b60008115159050919050565b600073ffffffffffffffffffffffffffffffffffffffff82169050919050565b600080fd5b6104778161042b565b811461048257600080fd5b5056fea26469706673582212209575b330ba55fbce66da42b79a15823cba3393fc2694b16cec7c5e2700ed5aef64736f6c63430008070033",
  "immutableReferences": {},
  "source": "// SPDX-License-Identifier: MIT\npragma solidity >=0.8.0;\n\nimport \"./Roles.sol\";\n\ncontract DistributorRole {\n    using Roles for Roles.Role;\n\n    /*\n    Events\n     */\n\n    event DistributorAdded (address indexed account);\n    event DistributorRemoved (address indexed account);\n\n    /*\n    Modifiers\n    */\n\n    Roles.Role private distributors;\n\n    constructor() {\n        _addDistributor(msg.sender); //mm...should be an admin role...this is kinda weird.\n    }\n\n    modifier onlyDistributor() {\n        require(isDistributor(msg.sender));\n        _;\n    }\n\n    function addDistributor(address addr) public onlyDistributor {\n        _addDistributor(addr);\n    }\n\n\n    function _addDistributor(address addr) internal {\n        distributors.add(addr);\n        emit DistributorAdded(addr);\n    }\n\n    function isDistributor(address addr) public view returns(bool){\n        return distributors.has(addr);\n    }\n\n    function removeDistributor() public {\n        _removeDistributor(msg.sender);\n    } \n\n    function _removeDistributor(address addr) public onlyDistributor {\n        distributors.remove(addr);\n        emit DistributorRemoved(addr);        \n    }\n\n}",
  "sourcePath": "/home/robinson/Documents/Repos/blockchain_course/projectSupplyChain/contracts/accesscontrol/DistributorRole.sol",
  "compiler": {
    "name": "solc",
    "version": "0.8.7+commit.e28d00a7.Emscripten.clang"
  },
  "schemaVersion": "3.4.1",
  "updatedAt": "2021-08-13T01:55:07.151Z",
  "networkType": "ethereum",
  "devdoc": {
    "kind": "dev",
    "methods": {},
    "version": 1
  },
  "userdoc": {
    "kind": "user",
    "methods": {},
    "version": 1
  }
}