{
  "contractName": "FarmerRole",
  "abi": [
    {
      "inputs": [],
      "stateMutability": "nonpayable",
      "type": "constructor"
    },
    {
      "anonymous": false,
      "inputs": [
        {
          "indexed": true,
          "internalType": "address",
          "name": "account",
          "type": "address"
        }
      ],
      "name": "FarmerAdded",
      "type": "event"
    },
    {
      "anonymous": false,
      "inputs": [
        {
          "indexed": true,
          "internalType": "address",
          "name": "account",
          "type": "address"
        }
      ],
      "name": "FarmerRemoved",
      "type": "event"
    },
    {
      "inputs": [
        {
          "internalType": "address",
          "name": "addr",
          "type": "address"
        }
      ],
      "name": "addFarmer",
      "outputs": [],
      "stateMutability": "nonpayable",
      "type": "function"
    },
    {
      "inputs": [
        {
          "internalType": "address",
          "name": "addr",
          "type": "address"
        }
      ],
      "name": "isFarmer",
      "outputs": [
        {
          "internalType": "bool",
          "name": "",
          "type": "bool"
        }
      ],
      "stateMutability": "view",
      "type": "function",
      "constant": true
    },
    {
      "inputs": [],
      "name": "removeFarmer",
      "outputs": [],
      "stateMutability": "nonpayable",
      "type": "function"
    },
    {
      "inputs": [
        {
          "internalType": "address",
          "name": "addr",
          "type": "address"
        }
      ],
      "name": "_removeFarmer",
      "outputs": [],
      "stateMutability": "nonpayable",
      "type": "function"
    }
  ],
  "bytecode": "0x608060405234801561001057600080fd5b506100203361002560201b60201c565b6101cc565b61003d81600061008360201b6101e11790919060201c565b8073ffffffffffffffffffffffffffffffffffffffff167f2e0ded4123377a3c2bc9a26f1717655a129e2f20752924d42e730ec89c83dbd060405160405180910390a250565b80600073ffffffffffffffffffffffffffffffffffffffff168173ffffffffffffffffffffffffffffffffffffffff1614156100be57600080fd5b6100ce838361013760201b60201c565b156100d857600080fd5b60018360000160008473ffffffffffffffffffffffffffffffffffffffff1673ffffffffffffffffffffffffffffffffffffffff16815260200190815260200160002060006101000a81548160ff021916908315150217905550505050565b600081600073ffffffffffffffffffffffffffffffffffffffff168173ffffffffffffffffffffffffffffffffffffffff16141561017457600080fd5b8360000160008473ffffffffffffffffffffffffffffffffffffffff1673ffffffffffffffffffffffffffffffffffffffff16815260200190815260200160002060009054906101000a900460ff1691505092915050565b6105a4806101db6000396000f3fe608060405234801561001057600080fd5b506004361061004c5760003560e01c806380c3f96d14610051578063b94290691461006d578063cf7a9b7a1461009d578063e5a555e4146100a7575b600080fd5b61006b60048036038101906100669190610440565b6100c3565b005b61008760048036038101906100829190610440565b610117565b604051610094919061049f565b60405180910390f35b6100a5610134565b005b6100c160048036038101906100bc9190610440565b61013f565b005b6100cc33610117565b61010b576040517f08c379a0000000000000000000000000000000000000000000000000000000008152600401610102906104ba565b60405180910390fd5b6101148161028f565b50565b600061012d8260006102e990919063ffffffff16565b9050919050565b61013d3361013f565b565b61014833610117565b610187576040517f08c379a000000000000000000000000000000000000000000000000000000000815260040161017e906104ba565b60405180910390fd5b61019b81600061037e90919063ffffffff16565b8073ffffffffffffffffffffffffffffffffffffffff167fa5e0f060af304ab17dd418c7927e3da3ae7868189bf387aee09ab179ccc572f260405160405180910390a250565b80600073ffffffffffffffffffffffffffffffffffffffff168173ffffffffffffffffffffffffffffffffffffffff16141561021c57600080fd5b61022683836102e9565b1561023057600080fd5b60018360000160008473ffffffffffffffffffffffffffffffffffffffff1673ffffffffffffffffffffffffffffffffffffffff16815260200190815260200160002060006101000a81548160ff021916908315150217905550505050565b6102a38160006101e190919063ffffffff16565b8073ffffffffffffffffffffffffffffffffffffffff167f2e0ded4123377a3c2bc9a26f1717655a129e2f20752924d42e730ec89c83dbd060405160405180910390a250565b600081600073ffffffffffffffffffffffffffffffffffffffff168173ffffffffffffffffffffffffffffffffffffffff16141561032657600080fd5b8360000160008473ffffffffffffffffffffffffffffffffffffffff1673ffffffffffffffffffffffffffffffffffffffff16815260200190815260200160002060009054906101000a900460ff1691505092915050565b80600073ffffffffffffffffffffffffffffffffffffffff168173ffffffffffffffffffffffffffffffffffffffff1614156103b957600080fd5b6103c383836102e9565b6103cc57600080fd5b60008360000160008473ffffffffffffffffffffffffffffffffffffffff1673ffffffffffffffffffffffffffffffffffffffff16815260200190815260200160002060006101000a81548160ff021916908315150217905550505050565b60008135905061043a81610557565b92915050565b60006020828403121561045657610455610529565b5b60006104648482850161042b565b91505092915050565b610476816104fd565b82525050565b6000610489600a836104da565b91506104948261052e565b602082019050919050565b60006020820190506104b4600083018461046d565b92915050565b600060208201905081810360008301526104d38161047c565b9050919050565b600082825260208201905092915050565b60006104f682610509565b9050919050565b60008115159050919050565b600073ffffffffffffffffffffffffffffffffffffffff82169050919050565b600080fd5b7f4e6f74204661726d657200000000000000000000000000000000000000000000600082015250565b610560816104eb565b811461056b57600080fd5b5056fea264697066735822122070714a4dbc13babcbd938fbbbd0205e47683d12f854e8382b8aebf9716568add64736f6c63430008070033",
  "immutableReferences": {},
  "source": "// SPDX-License-Identifier: MIT\npragma solidity >=0.8.0;\n\nimport \"./Roles.sol\";\n\ncontract FarmerRole {\n    using Roles for Roles.Role;\n\n    /*\n    Events\n     */\n\n    event FarmerAdded (address indexed account);\n    event FarmerRemoved (address indexed account);\n\n    /*\n    Modifiers\n    */\n\n    Roles.Role private farmers;\n\n    constructor() {\n        _addFarmer(msg.sender); //mm...should be an admin role...this is kinda weird.\n    }\n\n    modifier onlyFarmer() {\n        require(isFarmer(msg.sender), \"Not Farmer\");\n        _;\n    }\n\n    function addFarmer(address addr) public onlyFarmer {\n        _addFarmer(addr);\n    }\n\n\n    function _addFarmer(address addr) internal {\n        farmers.add(addr);\n        emit FarmerAdded(addr);\n    }\n\n    function isFarmer(address addr) public view returns(bool){\n        return farmers.has(addr);\n    }\n\n    function removeFarmer() public {\n        _removeFarmer(msg.sender);\n    } \n\n    function _removeFarmer(address addr) public onlyFarmer {\n        farmers.remove(addr);\n        emit FarmerRemoved(addr);        \n    }\n\n}",
  "sourcePath": "/home/robinson/Documents/Repos/blockchain_course/projectSupplyChain/contracts/accesscontrol/FarmerRole.sol",
  "compiler": {
    "name": "solc",
    "version": "0.8.7+commit.e28d00a7.Emscripten.clang"
  },
  "schemaVersion": "3.4.1",
  "updatedAt": "2021-08-13T01:55:07.144Z",
  "networkType": "ethereum",
  "devdoc": {
    "kind": "dev",
    "methods": {},
    "version": 1
  },
  "userdoc": {
    "kind": "user",
    "methods": {},
    "version": 1
  }
}