{
  "contractName": "SupplyChain",
  "abi": [
    {
      "inputs": [],
      "stateMutability": "payable",
      "type": "constructor",
      "payable": true
    },
    {
      "anonymous": false,
      "inputs": [
        {
          "indexed": false,
          "internalType": "uint256",
          "name": "upc",
          "type": "uint256"
        }
      ],
      "name": "Advertised",
      "type": "event"
    },
    {
      "anonymous": false,
      "inputs": [
        {
          "indexed": false,
          "internalType": "uint256",
          "name": "upc",
          "type": "uint256"
        }
      ],
      "name": "Buyed",
      "type": "event"
    },
    {
      "anonymous": false,
      "inputs": [
        {
          "indexed": true,
          "internalType": "address",
          "name": "account",
          "type": "address"
        }
      ],
      "name": "BuyerAdded",
      "type": "event"
    },
    {
      "anonymous": false,
      "inputs": [
        {
          "indexed": true,
          "internalType": "address",
          "name": "account",
          "type": "address"
        }
      ],
      "name": "BuyerRemoved",
      "type": "event"
    },
    {
      "anonymous": false,
      "inputs": [
        {
          "indexed": false,
          "internalType": "uint256",
          "name": "upc",
          "type": "uint256"
        }
      ],
      "name": "Collected",
      "type": "event"
    },
    {
      "anonymous": false,
      "inputs": [
        {
          "indexed": true,
          "internalType": "address",
          "name": "account",
          "type": "address"
        }
      ],
      "name": "DistributorAdded",
      "type": "event"
    },
    {
      "anonymous": false,
      "inputs": [
        {
          "indexed": true,
          "internalType": "address",
          "name": "account",
          "type": "address"
        }
      ],
      "name": "DistributorRemoved",
      "type": "event"
    },
    {
      "anonymous": false,
      "inputs": [
        {
          "indexed": true,
          "internalType": "address",
          "name": "account",
          "type": "address"
        }
      ],
      "name": "FarmerAdded",
      "type": "event"
    },
    {
      "anonymous": false,
      "inputs": [
        {
          "indexed": true,
          "internalType": "address",
          "name": "account",
          "type": "address"
        }
      ],
      "name": "FarmerRemoved",
      "type": "event"
    },
    {
      "anonymous": false,
      "inputs": [
        {
          "indexed": false,
          "internalType": "uint256",
          "name": "upc",
          "type": "uint256"
        }
      ],
      "name": "Growing",
      "type": "event"
    },
    {
      "anonymous": false,
      "inputs": [
        {
          "indexed": false,
          "internalType": "uint256",
          "name": "upc",
          "type": "uint256"
        }
      ],
      "name": "Harvested",
      "type": "event"
    },
    {
      "anonymous": false,
      "inputs": [
        {
          "indexed": false,
          "internalType": "uint256",
          "name": "upc",
          "type": "uint256"
        }
      ],
      "name": "Packed",
      "type": "event"
    },
    {
      "anonymous": false,
      "inputs": [
        {
          "indexed": false,
          "internalType": "uint256",
          "name": "upc",
          "type": "uint256"
        }
      ],
      "name": "Seeded",
      "type": "event"
    },
    {
      "anonymous": false,
      "inputs": [
        {
          "indexed": true,
          "internalType": "address",
          "name": "oldOwner",
          "type": "address"
        },
        {
          "indexed": true,
          "internalType": "address",
          "name": "newOwner",
          "type": "address"
        }
      ],
      "name": "TransferOwnership",
      "type": "event"
    },
    {
      "inputs": [
        {
          "internalType": "address",
          "name": "addr",
          "type": "address"
        }
      ],
      "name": "_removeBuyer",
      "outputs": [],
      "stateMutability": "nonpayable",
      "type": "function"
    },
    {
      "inputs": [
        {
          "internalType": "address",
          "name": "addr",
          "type": "address"
        }
      ],
      "name": "_removeDistributor",
      "outputs": [],
      "stateMutability": "nonpayable",
      "type": "function"
    },
    {
      "inputs": [
        {
          "internalType": "address",
          "name": "addr",
          "type": "address"
        }
      ],
      "name": "_removeFarmer",
      "outputs": [],
      "stateMutability": "nonpayable",
      "type": "function"
    },
    {
      "inputs": [
        {
          "internalType": "address",
          "name": "addr",
          "type": "address"
        }
      ],
      "name": "addBuyer",
      "outputs": [],
      "stateMutability": "nonpayable",
      "type": "function"
    },
    {
      "inputs": [
        {
          "internalType": "address",
          "name": "addr",
          "type": "address"
        }
      ],
      "name": "addDistributor",
      "outputs": [],
      "stateMutability": "nonpayable",
      "type": "function"
    },
    {
      "inputs": [
        {
          "internalType": "address",
          "name": "addr",
          "type": "address"
        }
      ],
      "name": "addFarmer",
      "outputs": [],
      "stateMutability": "nonpayable",
      "type": "function"
    },
    {
      "inputs": [],
      "name": "getOwner",
      "outputs": [
        {
          "internalType": "address",
          "name": "",
          "type": "address"
        }
      ],
      "stateMutability": "view",
      "type": "function",
      "constant": true
    },
    {
      "inputs": [
        {
          "internalType": "address",
          "name": "addr",
          "type": "address"
        }
      ],
      "name": "isBuyer",
      "outputs": [
        {
          "internalType": "bool",
          "name": "",
          "type": "bool"
        }
      ],
      "stateMutability": "view",
      "type": "function",
      "constant": true
    },
    {
      "inputs": [
        {
          "internalType": "address",
          "name": "addr",
          "type": "address"
        }
      ],
      "name": "isDistributor",
      "outputs": [
        {
          "internalType": "bool",
          "name": "",
          "type": "bool"
        }
      ],
      "stateMutability": "view",
      "type": "function",
      "constant": true
    },
    {
      "inputs": [
        {
          "internalType": "address",
          "name": "addr",
          "type": "address"
        }
      ],
      "name": "isFarmer",
      "outputs": [
        {
          "internalType": "bool",
          "name": "",
          "type": "bool"
        }
      ],
      "stateMutability": "view",
      "type": "function",
      "constant": true
    },
    {
      "inputs": [],
      "name": "isOwner",
      "outputs": [
        {
          "internalType": "bool",
          "name": "",
          "type": "bool"
        }
      ],
      "stateMutability": "view",
      "type": "function",
      "constant": true
    },
    {
      "inputs": [],
      "name": "removeBuyer",
      "outputs": [],
      "stateMutability": "nonpayable",
      "type": "function"
    },
    {
      "inputs": [],
      "name": "removeDistributor",
      "outputs": [],
      "stateMutability": "nonpayable",
      "type": "function"
    },
    {
      "inputs": [],
      "name": "removeFarmer",
      "outputs": [],
      "stateMutability": "nonpayable",
      "type": "function"
    },
    {
      "inputs": [],
      "name": "renounceOwnership",
      "outputs": [],
      "stateMutability": "nonpayable",
      "type": "function"
    },
    {
      "inputs": [
        {
          "internalType": "address",
          "name": "newOwner",
          "type": "address"
        }
      ],
      "name": "transferOwnership",
      "outputs": [],
      "stateMutability": "nonpayable",
      "type": "function"
    },
    {
      "inputs": [],
      "name": "kill",
      "outputs": [],
      "stateMutability": "nonpayable",
      "type": "function"
    },
    {
      "inputs": [
        {
          "internalType": "uint256",
          "name": "_upc",
          "type": "uint256"
        },
        {
          "internalType": "string",
          "name": "_farmerName",
          "type": "string"
        },
        {
          "internalType": "string",
          "name": "_farmName",
          "type": "string"
        },
        {
          "internalType": "string",
          "name": "_farmLatitude",
          "type": "string"
        },
        {
          "internalType": "string",
          "name": "_farmLongitude",
          "type": "string"
        }
      ],
      "name": "seedItem",
      "outputs": [],
      "stateMutability": "nonpayable",
      "type": "function"
    },
    {
      "inputs": [
        {
          "internalType": "uint256",
          "name": "_upc",
          "type": "uint256"
        }
      ],
      "name": "growingItem",
      "outputs": [],
      "stateMutability": "nonpayable",
      "type": "function"
    },
    {
      "inputs": [
        {
          "internalType": "uint256",
          "name": "_upc",
          "type": "uint256"
        },
        {
          "internalType": "uint256",
          "name": "_price",
          "type": "uint256"
        }
      ],
      "name": "harvestItem",
      "outputs": [],
      "stateMutability": "nonpayable",
      "type": "function"
    },
    {
      "inputs": [
        {
          "internalType": "uint256",
          "name": "_upc",
          "type": "uint256"
        }
      ],
      "name": "collectItem",
      "outputs": [],
      "stateMutability": "payable",
      "type": "function",
      "payable": true
    },
    {
      "inputs": [
        {
          "internalType": "uint256",
          "name": "_upc",
          "type": "uint256"
        }
      ],
      "name": "packItem",
      "outputs": [],
      "stateMutability": "nonpayable",
      "type": "function"
    },
    {
      "inputs": [
        {
          "internalType": "uint256",
          "name": "_upc",
          "type": "uint256"
        }
      ],
      "name": "advertiseItem",
      "outputs": [],
      "stateMutability": "nonpayable",
      "type": "function"
    },
    {
      "inputs": [
        {
          "internalType": "uint256",
          "name": "_upc",
          "type": "uint256"
        }
      ],
      "name": "buyItem",
      "outputs": [],
      "stateMutability": "payable",
      "type": "function",
      "payable": true
    },
    {
      "inputs": [
        {
          "internalType": "uint256",
          "name": "_upc",
          "type": "uint256"
        }
      ],
      "name": "fetchItemBuffer",
      "outputs": [
        {
          "internalType": "uint256",
          "name": "itemSKU",
          "type": "uint256"
        },
        {
          "internalType": "uint256",
          "name": "itemUPC",
          "type": "uint256"
        },
        {
          "internalType": "address",
          "name": "ownerId",
          "type": "address"
        },
        {
          "internalType": "address",
          "name": "originFarmerID",
          "type": "address"
        },
        {
          "internalType": "string",
          "name": "farmerName",
          "type": "string"
        },
        {
          "internalType": "string",
          "name": "farmName",
          "type": "string"
        },
        {
          "internalType": "string",
          "name": "farmLat",
          "type": "string"
        },
        {
          "internalType": "string",
          "name": "farmLong",
          "type": "string"
        }
      ],
      "stateMutability": "view",
      "type": "function",
      "constant": true
    },
    {
      "inputs": [
        {
          "internalType": "uint256",
          "name": "_upc",
          "type": "uint256"
        }
      ],
      "name": "fetchItemBufferTwo",
      "outputs": [
        {
          "internalType": "string",
          "name": "itemNotes",
          "type": "string"
        },
        {
          "internalType": "uint256",
          "name": "itemPrice",
          "type": "uint256"
        },
        {
          "internalType": "enum SupplyChain.State",
          "name": "state",
          "type": "uint8"
        },
        {
          "internalType": "address",
          "name": "distributorID",
          "type": "address"
        },
        {
          "internalType": "address",
          "name": "buyerID",
          "type": "address"
        }
      ],
      "stateMutability": "view",
      "type": "function",
      "constant": true
    }
  ],
  "bytecode": "0x6080604052336000806101000a81548173ffffffffffffffffffffffffffffffffffffffff021916908373ffffffffffffffffffffffffffffffffffffffff16021790555060008054906101000a900473ffffffffffffffffffffffffffffffffffffffff1673ffffffffffffffffffffffffffffffffffffffff16600073ffffffffffffffffffffffffffffffffffffffff167f5c486528ec3e3f0ea91181cff8116f02bfa350e03b8b6f12e00765adbb5af85c60405160405180910390a3620000d0336200014960201b60201c565b620000e133620001aa60201b60201c565b620000f2336200020b60201b60201c565b33600460006101000a81548173ffffffffffffffffffffffffffffffffffffffff021916908373ffffffffffffffffffffffffffffffffffffffff16021790555060016006819055506001600581905550620003ba565b620001648160016200026c60201b6200235a1790919060201c565b8073ffffffffffffffffffffffffffffffffffffffff167f6599d9dd7f97ccdc3d99ab507544f9f6ebfca20c63a7e3c018da49eeaefb164a60405160405180910390a250565b620001c58160026200026c60201b6200235a1790919060201c565b8073ffffffffffffffffffffffffffffffffffffffff167fddbf200aa634dc3fb81cfd68583dd1040d1c751d335e1d86b631bde3e977fea860405160405180910390a250565b620002268160036200026c60201b6200235a1790919060201c565b8073ffffffffffffffffffffffffffffffffffffffff167f2e0ded4123377a3c2bc9a26f1717655a129e2f20752924d42e730ec89c83dbd060405160405180910390a250565b80600073ffffffffffffffffffffffffffffffffffffffff168173ffffffffffffffffffffffffffffffffffffffff161415620002a857600080fd5b620002ba83836200032460201b60201c565b15620002c557600080fd5b60018360000160008473ffffffffffffffffffffffffffffffffffffffff1673ffffffffffffffffffffffffffffffffffffffff16815260200190815260200160002060006101000a81548160ff021916908315150217905550505050565b600081600073ffffffffffffffffffffffffffffffffffffffff168173ffffffffffffffffffffffffffffffffffffffff1614156200036257600080fd5b8360000160008473ffffffffffffffffffffffffffffffffffffffff1673ffffffffffffffffffffffffffffffffffffffff16815260200190815260200160002060009054906101000a900460ff1691505092915050565b61335880620003ca6000396000f3fe6080604052600436106101815760003560e01c80638f32d59b116100d1578063e5a555e41161008a578063f2fde38b11610064578063f2fde38b1461050b578063f30fc48014610534578063f906a9881461055d578063fa38fcdd1461058657610181565b8063e5a555e41461049d578063e7fb74c7146104c6578063ef491cc4146104e257610181565b80638f32d59b1461039a5780639bdc0801146103c5578063b9429069146103dc578063ba02bc8014610419578063bbf898031461045d578063cf7a9b7a1461048657610181565b806366225ff91161013e57806380c3f96d1161011857806380c3f96d146102e0578063893d20e8146103095780638ced5b3f146103345780638f0c86fa1461035d57610181565b806366225ff91461025f578063715018a6146102a05780637250e224146102b757610181565b80630334828d146101865780632a55feec1461019d5780633609a1eb146101da5780633e47bd28146101f657806341c0e1b51461021f57806348465ac714610236575b600080fd5b34801561019257600080fd5b5061019b6105af565b005b3480156101a957600080fd5b506101c460048036038101906101bf919061288c565b6105ba565b6040516101d19190612bdc565b60405180910390f35b6101f460048036038101906101ef91906128b9565b6105d7565b005b34801561020257600080fd5b5061021d600480360381019061021891906128b9565b610932565b005b34801561022b57600080fd5b50610234610b25565b005b34801561024257600080fd5b5061025d600480360381019061025891906128e6565b610b71565b005b34801561026b57600080fd5b50610286600480360381019061028191906128b9565b610dd9565b604051610297959493929190612bf7565b60405180910390f35b3480156102ac57600080fd5b506102b56112c1565b005b3480156102c357600080fd5b506102de60048036038101906102d9919061288c565b611390565b005b3480156102ec57600080fd5b506103076004803603810190610302919061288c565b6113ae565b005b34801561031557600080fd5b5061031e611402565b60405161032b9190612bc1565b60405180910390f35b34801561034057600080fd5b5061035b6004803603810190610356919061288c565b61142b565b005b34801561036957600080fd5b50610384600480360381019061037f919061288c565b611497565b6040516103919190612bdc565b60405180910390f35b3480156103a657600080fd5b506103af6114b4565b6040516103bc9190612bdc565b60405180910390f35b3480156103d157600080fd5b506103da61150b565b005b3480156103e857600080fd5b5061040360048036038101906103fe919061288c565b611516565b6040516104109190612bdc565b60405180910390f35b34801561042557600080fd5b50610440600480360381019061043b91906128b9565b611533565b604051610454989796959493929190612d8c565b60405180910390f35b34801561046957600080fd5b50610484600480360381019061047f919061288c565b611a31565b005b34801561049257600080fd5b5061049b611a4f565b005b3480156104a957600080fd5b506104c460048036038101906104bf919061288c565b611a5a565b005b6104e060048036038101906104db91906128b9565b611afc565b005b3480156104ee57600080fd5b50610509600480360381019061050491906128b9565b611e57565b005b34801561051757600080fd5b50610532600480360381019061052d919061288c565b611f6e565b005b34801561054057600080fd5b5061055b600480360381019061055691906128b9565b611f8b565b005b34801561056957600080fd5b50610584600480360381019061057f91906129d1565b6120df565b005b34801561059257600080fd5b506105ad60048036038101906105a8919061288c565b6122ee565b005b6105b8336122ee565b565b60006105d082600161240890919063ffffffff16565b9050919050565b6105e033611497565b6105e957600080fd5b80600260068111156105fe576105fd6130bd565b5b60076000838152602001908152602001600020600a0160009054906101000a900460ff166006811115610634576106336130bd565b5b14610674576040517f08c379a000000000000000000000000000000000000000000000000000000000815260040161066b90612cd1565b60405180910390fd5b6007600083815260200190815260200160002060090154803410156106ce576040517f08c379a00000000000000000000000000000000000000000000000000000000081526004016106c590612d51565b60405180910390fd5b826007600085815260200190815260200160002060030160009054906101000a900473ffffffffffffffffffffffffffffffffffffffff1673ffffffffffffffffffffffffffffffffffffffff166108fc60076000878152602001908152602001600020600901549081150290604051600060405180830381858888f19350505050158015610761573d6000803e3d6000fd5b50600360076000868152602001908152602001600020600a0160006101000a81548160ff0219169083600681111561079c5761079b6130bd565b5b0217905550336007600086815260200190815260200160002060020160006101000a81548173ffffffffffffffffffffffffffffffffffffffff021916908373ffffffffffffffffffffffffffffffffffffffff1602179055503360076000868152602001908152602001600020600a0160016101000a81548173ffffffffffffffffffffffffffffffffffffffff021916908373ffffffffffffffffffffffffffffffffffffffff1602179055507f278111f058fcc15883749957935fb9630ea32a108dd40081364d762353441ccb8460405161087a9190612d71565b60405180910390a1600060076000838152602001908152602001600020600901549050600081346108ab9190612f48565b905060076000848152602001908152602001600020600b0160009054906101000a900473ffffffffffffffffffffffffffffffffffffffff1673ffffffffffffffffffffffffffffffffffffffff166108fc829081150290604051600060405180830381858888f19350505050158015610929573d6000803e3d6000fd5b50505050505050565b61093b33611516565b61097a576040517f08c379a000000000000000000000000000000000000000000000000000000000815260040161097190612d11565b60405180910390fd5b6007600082815260200190815260200160002060020160009054906101000a900473ffffffffffffffffffffffffffffffffffffffff168073ffffffffffffffffffffffffffffffffffffffff163373ffffffffffffffffffffffffffffffffffffffff1614610a1f576040517f08c379a0000000000000000000000000000000000000000000000000000000008152600401610a1690612c51565b60405180910390fd5b8160006006811115610a3457610a336130bd565b5b60076000838152602001908152602001600020600a0160009054906101000a900460ff166006811115610a6a57610a696130bd565b5b14610aaa576040517f08c379a0000000000000000000000000000000000000000000000000000000008152600401610aa190612c91565b60405180910390fd5b600160076000858152602001908152602001600020600a0160006101000a81548160ff02191690836006811115610ae457610ae36130bd565b5b02179055507f28f463cc16a3d8804043fd4a9f4a6a0e0fe787b54ea30f60c61c9a0156209fff83604051610b189190612d71565b60405180910390a1505050565b610b2d6114b4565b610b3657600080fd5b600460009054906101000a900473ffffffffffffffffffffffffffffffffffffffff1673ffffffffffffffffffffffffffffffffffffffff16ff5b610b7a33611516565b610bb9576040517f08c379a0000000000000000000000000000000000000000000000000000000008152600401610bb090612d11565b60405180910390fd5b6001600654610bc89190612e98565b6006819055506006546007600087815260200190815260200160002060000181905550846007600087815260200190815260200160002060010181905550336007600087815260200190815260200160002060030160006101000a81548173ffffffffffffffffffffffffffffffffffffffff021916908373ffffffffffffffffffffffffffffffffffffffff160217905550336007600087815260200190815260200160002060020160006101000a81548173ffffffffffffffffffffffffffffffffffffffff021916908373ffffffffffffffffffffffffffffffffffffffff16021790555083600760008781526020019081526020016000206004019080519060200190610cda92919061274f565b5082600760008781526020019081526020016000206005019080519060200190610d0592919061274f565b5081600760008781526020019081526020016000206006019080519060200190610d3092919061274f565b5080600760008781526020019081526020016000206007019080519060200190610d5b92919061274f565b50600060076000878152602001908152602001600020600a0160006101000a81548160ff02191690836006811115610d9657610d956130bd565b5b02179055507ffe8b095e1a768e83a862933c32f2bd9b62b7b87f8fc8843d83ccce205208b65685604051610dca9190612d71565b60405180910390a15050505050565b6060600080600080600060076000888152602001908152602001600020604051806101a001604052908160008201548152602001600182015481526020016002820160009054906101000a900473ffffffffffffffffffffffffffffffffffffffff1673ffffffffffffffffffffffffffffffffffffffff1673ffffffffffffffffffffffffffffffffffffffff1681526020016003820160009054906101000a900473ffffffffffffffffffffffffffffffffffffffff1673ffffffffffffffffffffffffffffffffffffffff1673ffffffffffffffffffffffffffffffffffffffff168152602001600482018054610ed29061302b565b80601f0160208091040260200160405190810160405280929190818152602001828054610efe9061302b565b8015610f4b5780601f10610f2057610100808354040283529160200191610f4b565b820191906000526020600020905b815481529060010190602001808311610f2e57829003601f168201915b50505050508152602001600582018054610f649061302b565b80601f0160208091040260200160405190810160405280929190818152602001828054610f909061302b565b8015610fdd5780601f10610fb257610100808354040283529160200191610fdd565b820191906000526020600020905b815481529060010190602001808311610fc057829003601f168201915b50505050508152602001600682018054610ff69061302b565b80601f01602080910402602001604051908101604052809291908181526020018280546110229061302b565b801561106f5780601f106110445761010080835404028352916020019161106f565b820191906000526020600020905b81548152906001019060200180831161105257829003601f168201915b505050505081526020016007820180546110889061302b565b80601f01602080910402602001604051908101604052809291908181526020018280546110b49061302b565b80156111015780601f106110d657610100808354040283529160200191611101565b820191906000526020600020905b8154815290600101906020018083116110e457829003601f168201915b5050505050815260200160088201805461111a9061302b565b80601f01602080910402602001604051908101604052809291908181526020018280546111469061302b565b80156111935780601f1061116857610100808354040283529160200191611193565b820191906000526020600020905b81548152906001019060200180831161117657829003601f168201915b5050505050815260200160098201548152602001600a820160009054906101000a900460ff1660068111156111cb576111ca6130bd565b5b60068111156111dd576111dc6130bd565b5b8152602001600a820160019054906101000a900473ffffffffffffffffffffffffffffffffffffffff1673ffffffffffffffffffffffffffffffffffffffff1673ffffffffffffffffffffffffffffffffffffffff168152602001600b820160009054906101000a900473ffffffffffffffffffffffffffffffffffffffff1673ffffffffffffffffffffffffffffffffffffffff1673ffffffffffffffffffffffffffffffffffffffff16815250509050806101000151816101200151826101400151836101600151846101800151955095509550955095505091939590929450565b6112c96114b4565b6112d257600080fd5b600073ffffffffffffffffffffffffffffffffffffffff1660008054906101000a900473ffffffffffffffffffffffffffffffffffffffff1673ffffffffffffffffffffffffffffffffffffffff167f5c486528ec3e3f0ea91181cff8116f02bfa350e03b8b6f12e00765adbb5af85c60405160405180910390a360008060006101000a81548173ffffffffffffffffffffffffffffffffffffffff021916908373ffffffffffffffffffffffffffffffffffffffff160217905550565b61139933611497565b6113a257600080fd5b6113ab8161249d565b50565b6113b733611516565b6113f6576040517f08c379a00000000000000000000000000000000000000000000000000000000081526004016113ed90612d11565b60405180910390fd5b6113ff816124f7565b50565b60008060009054906101000a900473ffffffffffffffffffffffffffffffffffffffff16905090565b61143433611497565b61143d57600080fd5b61145181600261255190919063ffffffff16565b8073ffffffffffffffffffffffffffffffffffffffff167f126174f6cf49c81cdb4a9214c6b8f037bef55b4ec31e4fc776cea2a1c8a88d5960405160405180910390a250565b60006114ad82600261240890919063ffffffff16565b9050919050565b60008060009054906101000a900473ffffffffffffffffffffffffffffffffffffffff1673ffffffffffffffffffffffffffffffffffffffff163373ffffffffffffffffffffffffffffffffffffffff1614905090565b6115143361142b565b565b600061152c82600361240890919063ffffffff16565b9050919050565b6000806000806060806060806000600760008b8152602001908152602001600020604051806101a001604052908160008201548152602001600182015481526020016002820160009054906101000a900473ffffffffffffffffffffffffffffffffffffffff1673ffffffffffffffffffffffffffffffffffffffff1673ffffffffffffffffffffffffffffffffffffffff1681526020016003820160009054906101000a900473ffffffffffffffffffffffffffffffffffffffff1673ffffffffffffffffffffffffffffffffffffffff1673ffffffffffffffffffffffffffffffffffffffff1681526020016004820180546116309061302b565b80601f016020809104026020016040519081016040528092919081815260200182805461165c9061302b565b80156116a95780601f1061167e576101008083540402835291602001916116a9565b820191906000526020600020905b81548152906001019060200180831161168c57829003601f168201915b505050505081526020016005820180546116c29061302b565b80601f01602080910402602001604051908101604052809291908181526020018280546116ee9061302b565b801561173b5780601f106117105761010080835404028352916020019161173b565b820191906000526020600020905b81548152906001019060200180831161171e57829003601f168201915b505050505081526020016006820180546117549061302b565b80601f01602080910402602001604051908101604052809291908181526020018280546117809061302b565b80156117cd5780601f106117a2576101008083540402835291602001916117cd565b820191906000526020600020905b8154815290600101906020018083116117b057829003601f168201915b505050505081526020016007820180546117e69061302b565b80601f01602080910402602001604051908101604052809291908181526020018280546118129061302b565b801561185f5780601f106118345761010080835404028352916020019161185f565b820191906000526020600020905b81548152906001019060200180831161184257829003601f168201915b505050505081526020016008820180546118789061302b565b80601f01602080910402602001604051908101604052809291908181526020018280546118a49061302b565b80156118f15780601f106118c6576101008083540402835291602001916118f1565b820191906000526020600020905b8154815290600101906020018083116118d457829003601f168201915b5050505050815260200160098201548152602001600a820160009054906101000a900460ff166006811115611929576119286130bd565b5b600681111561193b5761193a6130bd565b5b8152602001600a820160019054906101000a900473ffffffffffffffffffffffffffffffffffffffff1673ffffffffffffffffffffffffffffffffffffffff1673ffffffffffffffffffffffffffffffffffffffff168152602001600b820160009054906101000a900473ffffffffffffffffffffffffffffffffffffffff1673ffffffffffffffffffffffffffffffffffffffff1673ffffffffffffffffffffffffffffffffffffffff16815250509050806000015181602001518260400151836060015184608001518560a001518660c001518760e001519850985098509850985098509850985050919395975091939597565b611a3a336105ba565b611a4357600080fd5b611a4c816125fe565b50565b611a5833611a5a565b565b611a6333611516565b611aa2576040517f08c379a0000000000000000000000000000000000000000000000000000000008152600401611a9990612d11565b60405180910390fd5b611ab681600361255190919063ffffffff16565b8073ffffffffffffffffffffffffffffffffffffffff167fa5e0f060af304ab17dd418c7927e3da3ae7868189bf387aee09ab179ccc572f260405160405180910390a250565b611b05336105ba565b611b0e57600080fd5b8060056006811115611b2357611b226130bd565b5b60076000838152602001908152602001600020600a0160009054906101000a900460ff166006811115611b5957611b586130bd565b5b14611b99576040517f08c379a0000000000000000000000000000000000000000000000000000000008152600401611b9090612d31565b60405180910390fd5b600760008381526020019081526020016000206009015480341015611bf3576040517f08c379a0000000000000000000000000000000000000000000000000000000008152600401611bea90612d51565b60405180910390fd5b826007600085815260200190815260200160002060020160009054906101000a900473ffffffffffffffffffffffffffffffffffffffff1673ffffffffffffffffffffffffffffffffffffffff166108fc60076000878152602001908152602001600020600901549081150290604051600060405180830381858888f19350505050158015611c86573d6000803e3d6000fd5b50600660076000868152602001908152602001600020600a0160006101000a81548160ff02191690836006811115611cc157611cc06130bd565b5b0217905550336007600086815260200190815260200160002060020160006101000a81548173ffffffffffffffffffffffffffffffffffffffff021916908373ffffffffffffffffffffffffffffffffffffffff1602179055503360076000868152602001908152602001600020600b0160006101000a81548173ffffffffffffffffffffffffffffffffffffffff021916908373ffffffffffffffffffffffffffffffffffffffff1602179055507f4ef53258f94ddbc1ea550eda541d9d69e07d5fed0adf283093c58b494816276d84604051611d9f9190612d71565b60405180910390a160006007600083815260200190815260200160002060090154905060008134611dd09190612f48565b905060076000848152602001908152602001600020600b0160009054906101000a900473ffffffffffffffffffffffffffffffffffffffff1673ffffffffffffffffffffffffffffffffffffffff166108fc829081150290604051600060405180830381858888f19350505050158015611e4e573d6000803e3d6000fd5b50505050505050565b611e6033611497565b611e6957600080fd5b8060046006811115611e7e57611e7d6130bd565b5b60076000838152602001908152602001600020600a0160009054906101000a900460ff166006811115611eb457611eb36130bd565b5b14611ef4576040517f08c379a0000000000000000000000000000000000000000000000000000000008152600401611eeb90612cb1565b60405180910390fd5b600560076000848152602001908152602001600020600a0160006101000a81548160ff02191690836006811115611f2e57611f2d6130bd565b5b02179055507f26aeaf6aa11656fd0fe35f8f689c6755044c86f4727f1f77785c515cdab7994c82604051611f629190612d71565b60405180910390a15050565b611f766114b4565b611f7f57600080fd5b611f8881612658565b50565b611f9433611497565b611f9d57600080fd5b8060036006811115611fb257611fb16130bd565b5b60076000838152602001908152602001600020600a0160009054906101000a900460ff166006811115611fe857611fe76130bd565b5b14612028576040517f08c379a000000000000000000000000000000000000000000000000000000000815260040161201f90612cf1565b60405180910390fd5b600460076000848152602001908152602001600020600a0160006101000a81548160ff02191690836006811115612062576120616130bd565b5b02179055506002600760008481526020019081526020016000206009015461208a9190612eee565b60076000848152602001908152602001600020600901819055507f9b3b66e2380b690bae22c73ef1428fb0c91e72fe14a4b6defa13035214187aff826040516120d39190612d71565b60405180910390a15050565b6120e833611516565b612127576040517f08c379a000000000000000000000000000000000000000000000000000000000815260040161211e90612d11565b60405180910390fd5b6007600083815260200190815260200160002060020160009054906101000a900473ffffffffffffffffffffffffffffffffffffffff168073ffffffffffffffffffffffffffffffffffffffff163373ffffffffffffffffffffffffffffffffffffffff16146121cc576040517f08c379a00000000000000000000000000000000000000000000000000000000081526004016121c390612c51565b60405180910390fd5b82600160068111156121e1576121e06130bd565b5b60076000838152602001908152602001600020600a0160009054906101000a900460ff166006811115612217576122166130bd565b5b14612257576040517f08c379a000000000000000000000000000000000000000000000000000000000815260040161224e90612c71565b60405180910390fd5b600260076000868152602001908152602001600020600a0160006101000a81548160ff02191690836006811115612291576122906130bd565b5b02179055508260076000868152602001908152602001600020600901819055507f8e55ccfc9778ff8eba1646d765cf1982537ce0f9257054a17b48aad745250183846040516122e09190612d71565b60405180910390a150505050565b6122f7336105ba565b61230057600080fd5b61231481600161255190919063ffffffff16565b8073ffffffffffffffffffffffffffffffffffffffff167f83fd4cbc7bc934bdfbae994ac6e72fcc0e50abd6995c1949520e761ba650d58260405160405180910390a250565b80600073ffffffffffffffffffffffffffffffffffffffff168173ffffffffffffffffffffffffffffffffffffffff16141561239557600080fd5b61239f8383612408565b156123a957600080fd5b60018360000160008473ffffffffffffffffffffffffffffffffffffffff1673ffffffffffffffffffffffffffffffffffffffff16815260200190815260200160002060006101000a81548160ff021916908315150217905550505050565b600081600073ffffffffffffffffffffffffffffffffffffffff168173ffffffffffffffffffffffffffffffffffffffff16141561244557600080fd5b8360000160008473ffffffffffffffffffffffffffffffffffffffff1673ffffffffffffffffffffffffffffffffffffffff16815260200190815260200160002060009054906101000a900460ff1691505092915050565b6124b181600261235a90919063ffffffff16565b8073ffffffffffffffffffffffffffffffffffffffff167fddbf200aa634dc3fb81cfd68583dd1040d1c751d335e1d86b631bde3e977fea860405160405180910390a250565b61250b81600361235a90919063ffffffff16565b8073ffffffffffffffffffffffffffffffffffffffff167f2e0ded4123377a3c2bc9a26f1717655a129e2f20752924d42e730ec89c83dbd060405160405180910390a250565b80600073ffffffffffffffffffffffffffffffffffffffff168173ffffffffffffffffffffffffffffffffffffffff16141561258c57600080fd5b6125968383612408565b61259f57600080fd5b60008360000160008473ffffffffffffffffffffffffffffffffffffffff1673ffffffffffffffffffffffffffffffffffffffff16815260200190815260200160002060006101000a81548160ff021916908315150217905550505050565b61261281600161235a90919063ffffffff16565b8073ffffffffffffffffffffffffffffffffffffffff167f6599d9dd7f97ccdc3d99ab507544f9f6ebfca20c63a7e3c018da49eeaefb164a60405160405180910390a250565b600073ffffffffffffffffffffffffffffffffffffffff168173ffffffffffffffffffffffffffffffffffffffff16141561269257600080fd5b8073ffffffffffffffffffffffffffffffffffffffff1660008054906101000a900473ffffffffffffffffffffffffffffffffffffffff1673ffffffffffffffffffffffffffffffffffffffff167f5c486528ec3e3f0ea91181cff8116f02bfa350e03b8b6f12e00765adbb5af85c60405160405180910390a3806000806101000a81548173ffffffffffffffffffffffffffffffffffffffff021916908373ffffffffffffffffffffffffffffffffffffffff16021790555050565b82805461275b9061302b565b90600052602060002090601f01602090048101928261277d57600085556127c4565b82601f1061279657805160ff19168380011785556127c4565b828001600101855582156127c4579182015b828111156127c35782518255916020019190600101906127a8565b5b5090506127d191906127d5565b5090565b5b808211156127ee5760008160009055506001016127d6565b5090565b600061280561280084612e4b565b612e26565b9050828152602081018484840111156128215761282061314f565b5b61282c848285612fe9565b509392505050565b600081359050612843816132f4565b92915050565b600082601f83011261285e5761285d61314a565b5b813561286e8482602086016127f2565b91505092915050565b6000813590506128868161330b565b92915050565b6000602082840312156128a2576128a1613159565b5b60006128b084828501612834565b91505092915050565b6000602082840312156128cf576128ce613159565b5b60006128dd84828501612877565b91505092915050565b600080600080600060a0868803121561290257612901613159565b5b600061291088828901612877565b955050602086013567ffffffffffffffff81111561293157612930613154565b5b61293d88828901612849565b945050604086013567ffffffffffffffff81111561295e5761295d613154565b5b61296a88828901612849565b935050606086013567ffffffffffffffff81111561298b5761298a613154565b5b61299788828901612849565b925050608086013567ffffffffffffffff8111156129b8576129b7613154565b5b6129c488828901612849565b9150509295509295909350565b600080604083850312156129e8576129e7613159565b5b60006129f685828601612877565b9250506020612a0785828601612877565b9150509250929050565b612a1a81612f7c565b82525050565b612a2981612f8e565b82525050565b612a3881612fd7565b82525050565b6000612a4982612e7c565b612a538185612e87565b9350612a63818560208601612ff8565b612a6c8161315e565b840191505092915050565b6000612a84601183612e87565b9150612a8f8261316f565b602082019050919050565b6000612aa7600f83612e87565b9150612ab282613198565b602082019050919050565b6000612aca600e83612e87565b9150612ad5826131c1565b602082019050919050565b6000612aed600e83612e87565b9150612af8826131ea565b602082019050919050565b6000612b10601183612e87565b9150612b1b82613213565b602082019050919050565b6000612b33601183612e87565b9150612b3e8261323c565b602082019050919050565b6000612b56600a83612e87565b9150612b6182613265565b602082019050919050565b6000612b79601283612e87565b9150612b848261328e565b602082019050919050565b6000612b9c601183612e87565b9150612ba7826132b7565b602082019050919050565b612bbb81612fcd565b82525050565b6000602082019050612bd66000830184612a11565b92915050565b6000602082019050612bf16000830184612a20565b92915050565b600060a0820190508181036000830152612c118188612a3e565b9050612c206020830187612bb2565b612c2d6040830186612a2f565b612c3a6060830185612a11565b612c476080830184612a11565b9695505050505050565b60006020820190508181036000830152612c6a81612a77565b9050919050565b60006020820190508181036000830152612c8a81612a9a565b9050919050565b60006020820190508181036000830152612caa81612abd565b9050919050565b60006020820190508181036000830152612cca81612ae0565b9050919050565b60006020820190508181036000830152612cea81612b03565b9050919050565b60006020820190508181036000830152612d0a81612b26565b9050919050565b60006020820190508181036000830152612d2a81612b49565b9050919050565b60006020820190508181036000830152612d4a81612b6c565b9050919050565b60006020820190508181036000830152612d6a81612b8f565b9050919050565b6000602082019050612d866000830184612bb2565b92915050565b600061010082019050612da2600083018b612bb2565b612daf602083018a612bb2565b612dbc6040830189612a11565b612dc96060830188612a11565b8181036080830152612ddb8187612a3e565b905081810360a0830152612def8186612a3e565b905081810360c0830152612e038185612a3e565b905081810360e0830152612e178184612a3e565b90509998505050505050505050565b6000612e30612e41565b9050612e3c828261305d565b919050565b6000604051905090565b600067ffffffffffffffff821115612e6657612e6561311b565b5b612e6f8261315e565b9050602081019050919050565b600081519050919050565b600082825260208201905092915050565b6000612ea382612fcd565b9150612eae83612fcd565b9250827fffffffffffffffffffffffffffffffffffffffffffffffffffffffffffffffff03821115612ee357612ee261308e565b5b828201905092915050565b6000612ef982612fcd565b9150612f0483612fcd565b9250817fffffffffffffffffffffffffffffffffffffffffffffffffffffffffffffffff0483118215151615612f3d57612f3c61308e565b5b828202905092915050565b6000612f5382612fcd565b9150612f5e83612fcd565b925082821015612f7157612f7061308e565b5b828203905092915050565b6000612f8782612fad565b9050919050565b60008115159050919050565b6000819050612fa8826132e0565b919050565b600073ffffffffffffffffffffffffffffffffffffffff82169050919050565b6000819050919050565b6000612fe282612f9a565b9050919050565b82818337600083830152505050565b60005b83811015613016578082015181840152602081019050612ffb565b83811115613025576000848401525b50505050565b6000600282049050600182168061304357607f821691505b60208210811415613057576130566130ec565b5b50919050565b6130668261315e565b810181811067ffffffffffffffff821117156130855761308461311b565b5b80604052505050565b7f4e487b7100000000000000000000000000000000000000000000000000000000600052601160045260246000fd5b7f4e487b7100000000000000000000000000000000000000000000000000000000600052602160045260246000fd5b7f4e487b7100000000000000000000000000000000000000000000000000000000600052602260045260246000fd5b7f4e487b7100000000000000000000000000000000000000000000000000000000600052604160045260246000fd5b600080fd5b600080fd5b600080fd5b600080fd5b6000601f19601f8301169050919050565b7f4e6f742043757272656e74204f776e6572000000000000000000000000000000600082015250565b7f4e6f742047726f77696e67205965740000000000000000000000000000000000600082015250565b7f4e6f742053656564656420596574000000000000000000000000000000000000600082015250565b7f4e6f74205061636b656420596574000000000000000000000000000000000000600082015250565b7f4e6f742048617276657374656420596574000000000000000000000000000000600082015250565b7f4e6f7420636f6c6c656374656420596574000000000000000000000000000000600082015250565b7f4e6f74204661726d657200000000000000000000000000000000000000000000600082015250565b7f4e6f742061647665727469736564205965740000000000000000000000000000600082015250565b7f4e6f7420456e6f75676874206574686572000000000000000000000000000000600082015250565b600781106132f1576132f06130bd565b5b50565b6132fd81612f7c565b811461330857600080fd5b50565b61331481612fcd565b811461331f57600080fd5b5056fea26469706673582212200e69dd0645153479172b6271ddd84e937ab8525ce4d1f3f04794c06b2aeda22f64736f6c63430008070033",
  "immutableReferences": {},
  "source": "// SPDX-License-Identifier: MIT\npragma solidity >=0.8.0;\n\nimport \"../core/Ownable.sol\";\nimport \"../accesscontrol/BuyerRole.sol\";\nimport \"../accesscontrol/DistributorRole.sol\";\nimport \"../accesscontrol/FarmerRole.sol\";\n\n\ncontract SupplyChain is Ownable, BuyerRole, DistributorRole, FarmerRole{\n    address owner;\n\n    uint upc;\n\n    uint sku;\n\n    mapping (uint => Item) items; // upc --> Item\n\n    mapping (uint => string[]) itemsHistory; //upc --> [hashHistory]\n\n    enum State {\n        seeded,     //0\n        growing,    //1\n        harvested,  //2\n        collected,  //3\n        packed,     //4\n        advertised, //5\n        buyed       //6\n    }\n\n    struct Item {\n        uint sku;\n        uint upc;\n        address currentOwnerID;\n        address originFarmerID;\n        string  farmerName;\n        string  farmName;\n        string  farmLatitude;\n        string  farmLongitude;\n        string  itemNotes;\n        uint    itemPrice;\n        State   itemState;\n        address distributorID;\n        address buyerID;\n    }\n\n    /*Events*/\n    event Seeded(uint upc);\n    event Growing(uint upc);\n    event Harvested(uint upc);\n    event Collected(uint upc);\n    event Packed(uint upc);\n    event Advertised(uint upc);\n    event Buyed(uint upc);\n\n    modifier verifyCaller (address _addr){\n        require(msg.sender == _addr, \"Not Current Owner\");\n        _;\n    }\n\n    modifier paidEnought(uint _price) {\n        require(msg.value >= _price, \"Not Enought ether\");\n        _;\n    }\n\n    modifier checkValue(uint _upc) {\n        _;\n        uint _price = items[_upc].itemPrice;\n        uint amountToReturn = msg.value - _price;\n        payable(items[_upc].buyerID).transfer(amountToReturn);\n    }\n\n    modifier seeded(uint _upc) {\n        require(items[_upc].itemState == State.seeded, \"Not Seeded Yet\");\n        _;\n    }\n\n    modifier growing(uint _upc) {\n        require(items[_upc].itemState == State.growing, \"Not Growing Yet\");\n        _;\n    }\n\n    modifier harvested(uint _upc) {\n        require(items[_upc].itemState == State.harvested, \"Not Harvested Yet\");\n        _;\n    }\n\n    modifier collected(uint _upc) {\n        require(items[_upc].itemState == State.collected, \"Not collected Yet\");\n        _;\n    }\n\n    modifier packed(uint _upc) {\n        require(items[_upc].itemState == State.packed, \"Not Packed Yet\");\n        _;\n    }\n\n    modifier advertised(uint _upc) {\n        require(items[_upc].itemState == State.advertised, \"Not advertised Yet\");\n        _;\n    }\n\n    modifier buyed(uint _upc) {\n        require(items[_upc].itemState == State.buyed);\n        _;\n    }\n\n    constructor() payable {\n        owner = msg.sender;\n        sku = 1;\n        upc = 1; \n    }\n\n    function kill() public onlyOwner {\n        selfdestruct(payable(owner));\n    }\n\n    function seedItem(uint _upc, string memory _farmerName, string memory _farmName, string memory _farmLatitude,string memory _farmLongitude) onlyFarmer public {\n        sku = sku+1;\n        items[_upc].sku = sku;\n        items[_upc].upc = _upc;\n        items[_upc].originFarmerID = msg.sender;\n        items[_upc].currentOwnerID = msg.sender;\n        items[_upc].farmerName = _farmerName;\n        items[_upc].farmName = _farmName;\n        items[_upc].farmLatitude = _farmLatitude;\n        items[_upc].farmLongitude = _farmLongitude;\n        items[_upc].itemState = State.seeded;\n        emit Seeded(_upc);\n    }\n\n    function growingItem(uint _upc) public onlyFarmer verifyCaller(items[_upc].currentOwnerID) seeded(_upc){\n        items[_upc].itemState = State.growing;\n        emit Growing(_upc);\n    }\n\n    function harvestItem(uint _upc, uint _price) public onlyFarmer verifyCaller(items[_upc].currentOwnerID) growing(_upc){\n        items[_upc].itemState = State.harvested;\n        items[_upc].itemPrice = _price;\n        emit Harvested(_upc);\n    }\n\n    function collectItem(uint _upc) public onlyDistributor harvested(_upc) paidEnought(items[_upc].itemPrice) checkValue(_upc) payable {\n        payable(items[_upc].originFarmerID).transfer(items[_upc].itemPrice);\n        items[_upc].itemState = State.collected;\n        items[_upc].currentOwnerID = msg.sender;\n        items[_upc].distributorID = msg.sender;\n        emit Collected(_upc);\n    }\n\n    function packItem(uint _upc) public onlyDistributor collected(_upc) {\n        items[_upc].itemState = State.packed;\n        items[_upc].itemPrice = items[_upc].itemPrice*2;\n        emit Packed(_upc);        \n    }\n\n    function advertiseItem(uint _upc) public onlyDistributor packed(_upc) {\n        items[_upc].itemState = State.advertised;\n        emit Advertised(_upc);\n    }\n\n    function buyItem(uint _upc) public onlyBuyer advertised(_upc) paidEnought(items[_upc].itemPrice) checkValue(_upc) payable {\n        payable(items[_upc].currentOwnerID).transfer(items[_upc].itemPrice);\n        items[_upc].itemState = State.buyed;\n        items[_upc].currentOwnerID = msg.sender;\n        items[_upc].buyerID = msg.sender;\n        emit Buyed(_upc);\n    }\n\n    function fetchItemBuffer(uint _upc) public view returns \n    (uint itemSKU, \n    uint itemUPC, \n    address ownerId, \n    address originFarmerID, \n    string memory farmerName,\n    string memory farmName, \n    string memory farmLat,\n    string memory farmLong\n    ){\n        Item memory item = items[_upc];\n        return(\n            item.sku,\n            item.upc,\n            item.currentOwnerID,\n            item.originFarmerID,\n            item.farmerName,\n            item.farmName,\n            item.farmLatitude,\n            item.farmLongitude\n        );\n    }\n\n    function fetchItemBufferTwo(uint _upc) public view returns \n    (string memory itemNotes, \n    uint itemPrice, \n    State state, \n    address distributorID, \n    address buyerID\n    ){\n        Item memory item = items[_upc];\n        return(\n            item.itemNotes,\n            item.itemPrice,\n            item.itemState,\n            item.distributorID,\n            item.buyerID            \n        );\n    }\n\n\n}",
  "sourcePath": "/home/robinson/Documents/Repos/blockchain_course/projectSupplyChain/contracts/base/SupplyChain.sol",
  "compiler": {
    "name": "solc",
    "version": "0.8.7+commit.e28d00a7.Emscripten.clang"
  },
  "schemaVersion": "3.4.1",
  "updatedAt": "2021-08-13T01:55:07.164Z",
  "networkType": "ethereum",
  "devdoc": {
    "kind": "dev",
    "methods": {},
    "version": 1
  },
  "userdoc": {
    "kind": "user",
    "methods": {
      "getOwner()": {
        "notice": "Look up the address of the owner"
      },
      "isOwner()": {
        "notice": "Check if the calling address is the owner of the contract"
      },
      "renounceOwnership()": {
        "notice": "Define a function to renounce ownerhip"
      },
      "transferOwnership(address)": {
        "notice": "Define a public function to transfer ownership"
      }
    },
    "version": 1
  }
}